:040000000C945D00FF
:100004000C9400000C9400000C9400000C9400006C
:100014000C9400000C9400000C9400000C9400005C
:100024000C9400000C9400000C9400000C9400004C
:100034000C9400000C9400000C9400000C9400003C
:100044000C9400000C9400000C9400000C9400002C
:100054000C9400000C9400000C9400000C9400001C
:100064000C94000047696120747269204144433A4A
:1000740020000A0047696120747269206469656E12
:100084002061703A20002E0020766F6C200A000058
:100094000E000003680002000E0376000200100345
:1000A4007600120012037800020024038A0007007D
:1000B40026038C000000F894EE27EFBBF1E0F5BFB7
:1000C400E5BF8DE0A2E0BB27ED938A95E9F780E0D8
:1000D40098E0A0E0B1E0ED930197E9F7E4E9F0E0FE
:1000E40085919591009761F0A591B5910590159032
:1000F400BF01F00105900D920197E1F7FB01F0CFEC
:10010400E0E0EEBBEFEFEDBFE8E0EEBFC0E0D3E030
:100114000C940901E7E6F0E03E2E4F2EEF2FFF2767
:10012400E7FDFFEFE093C5003092C400E6E0E09302
:10013400C200E8E9E093C100789408951A931A2F55
:10014400E091C000E072E1F31093C6005EC01A9320
:100154000A938D01D801EC91E03059F0AC91EEDFB7
:10016400D801AC91AA3011F4ADE0E8DF0F5F1F4F66
:10017400F1CF099119910895BA93AA932897D8D0E9
:1001840000E010E04E855F85F801DE011696EA0F67
:10019400FB1FBF01DA01EAE0F0E040D1E05DDB01E2
:1001A400EC93DA01EAE0F0E010D1AF010F5F1F4FEA
:1001B400042E052A49F798010024021603065CF46C
:1001C400F9013197DE011696AE0FBF1FAC91B6DF71
:1001D40021503040F1CFB3D06096089583D0E7E842
:1001E400E0937A0086D011C07DD083D0E0917A006C
:1001F400E064E0937A00E0917A00E071E1F3E09149
:100204007A00E061E0937A0081D019910895A0E02A
:10021400E5DF80DFA0E0E8DF79D066277727E09389
:100224002D03F0932E0360932F0370933003A0E00B
:10023400B3E08DDFA0912D03B0912E039DDFAEE0DE
:10024400B3E085DFE0912D03F0912E0360912F033D
:1002540070913003A4EFB1E080E090E083D0DF013F
:10026400CB01E0E0F4E060E070E0B4D0E09331036F
:10027400F09332036093330370933403A0913103FA
:10028400B091320379DFA0E1B3E061DF44D0D4D090
:10029400E0933503F0933603609337037093380388
:1002A4003AD098D0E0933903F0933A0360933B0338
:1002B40070933C03A2E1B3E04ADFA0913903B0910B
:1002C4003A035ADFA4E2B3E042DFA0913503B091D0
:1002D400360352DFA6E2B3E03ADFA8EBBBE0BED0C0
:1002E40099CFFFCF1A931A2FE12FE064E0937C009B
:1002F4000895AEE7B0E06A2F1C90E12FA1E02AD068
:10030400E129A62FEC93AAE0B0E0A8C0E091780020
:10031400F09179000895A0913103B0913203809156
:10032400330390913403E4E6F0E060E070E0089574
:100334005A934A933A932A931A930A9308955D81A0
:100344004C813B812A81198108810895F195E195B9
:10035400F0400895EE230E2EEA2F19F0EE0F0A94C2
:10036400E9F708957A9F702D6B9F700DF89F700DBB
:10037400E99F700D6A9F602D710DFB9F600D711DCB
:10038400E89F600D711D8827FA9FF02D610D781F7D
:10039400EB9FF00D611D781FEA9FE02DF10D681FA2
:1003A400781F08950024112490E1AA0FBB1F001C9C
:1003B400111C0E1A1F0A18F40E0E1F1E01C0A16094
:1003C4009A9599F7FD01D00108953AD0EBDF0EF428
:1003D400BDDF08953F934F935F9300241124A00140
:1003E40030E2AA0FBB1F881F991F001C111C441F59
:1003F400551F0E1A1F0A460B570B28F40E0E1F1E0C
:10040400461F571F01C0A1603A9559F7FD01BC0171
:10041400D001CA015F914F913F910895E894B7FFCD
:1004240004C0B195A195B0406894F7FD8FDFBADFA1
:10043400FD010EF48BDF0895CDDFFD01BC010895AD
:10044400E894F7FF02C082DF6894B7FF06C0B19555
:10045400A195B04000F8039400FA0895109639F07D
:10046400A89580ED97E00197F1F71197C9F70895E2
:00000001FF
