S00B00006C63642E73726563E6
S11300000C9434000C9451000C9451000C94510045
S11300100C9451000C9451000C9451000C94510018
S11300200C9451000C9451000C9451000C94510008
S11300300C9451000C9451000C9451000C945100F8
S11300400C9451000C9451000C9451000C945100E8
S11300500C9451000C9451000C9451000C945100D8
S11300600C9451000C94510011241FBECFEFD8E022
S1130070DEBFCDBF11E0A0E0B1E0E2E1FDE002C0EF
S113008005900D92AC34B107D9F721E0ACE4B1E0AE
S113009001C01D92AC34B207E1F70E94EF010C9449
S11300A087060C94000080E480937C00EAE7F0E08B
S11300B08081886880838081887F80838081866056
S11300C080830895ECE7F0E09081987F908390819D
S11300D08770982B9083EAE7F0E0808180648083C6
S11300E0808184FDFDCF809178002091790090E09B
S11300F0922B0895CF93DF93EA016A30710581054D
S11301009105A8F49F938F937F936F9380E091E080
S11301109F938F93DF934F930E949D038DB79EB758
S113012008960FB6F8949EBF0FBE8DBF96C0643676
S1130130710581059105A8F49F938F937F936F9325
S113014089E091E09F938F93DF934F930E949D03E7
S11301508DB79EB708960FB6F8949EBF0FBE8DBF9D
S11301607CC0683E23E0720781059105A8F49F9343
S11301708F937F936F9381E191E09F938F93DF93AC
S11301804F930E949D038DB79EB708960FB6F894BF
S11301909EBF0FBE8DBF61C0603127E2720781052B
S11301A0910548F59F938F937F936F9384E191E03A
S11301B09F938F93DF934F930E949D038B811F9294
S11301C08F938A811F928F9389811F928F93888145
S11301D01F928F9388E191E09F938F93DF93CF9346
S11301E00E949D038DB79EB744960FB6F8949EBFA8
S11301F00FBE8DBF32C0603A26E8720721E0820745
S1130200910558F59F938F937F936F9384E191E0C9
S11302109F938F93DF934F930E949D038C811F9232
S11302208F938B811F928F938A811F928F938981E1
S11302301F928F9388811F928F9383E291E09F9303
S11302408F93DF93CF930E949D038DB79EB74696FD
S11302500FB6F8949EBF0FBE8DBFCE01DF91CF9134
S11302600895CF93C82F84600E94190200008C2F38
S11302708B7F0E9419020000CF910895CF93C82F5D
S11302800E9419028C2F0E943101CF9108951F936F
S1130290CF93DF93182FD62FD07FD42B80E1689F84
S11302A0B0011124C42FC62B0E940002812F0E948A
S11302B00B028D2F0E9419028D2F0E9431018C2F69
S11302C00E9419028C2F0E9431010E942602DF91A4
S11302D0CF911F91089548E00E94470183ED90E378
S11302E00197F1F700C000000895CF93C82F8FE95C
S11302F09FE00197F1F700C000000E94F4010E9402
S113030000028C2F0E940B0280E30E943E0181EECA
S113031094E00197F1F700C0000080E30E943E01E1
S113032094E29A95F1F700C080E30E943E0180E1D7
S11303308A95F1F700C080E20E943E0190E19A950F
S1130340F1F700C00E94260268E28C2F0E946B0124
S113035068E08C2F0E946B0161E08C2F0E946B017E
S113036066E08C2F0E946B0180E0CF91089549E0F4
S11303700E9447010895613188F4433088F44111A3
S113038005C060680E946B0180E00895413051F41B
S1130390605C60680E946B0180E0089581E00895CC
S11303A081E0089580E0089561E00E946B01089562
S11303B06CE00E946B0108951F93CF93DF93EB01D0
S11303C06881662341F0182F2196812F0E94B7017E
S11303D069916111FACFDF91CF911F9108950E9425
S11303E02A0280E090E0089588E08093B800E9EB69
S11303F0F0E08081908182708160892B80830895F0
S113040084EA8093BC00ECEBF0E080818823ECF775
S11304108091B9000895880F8093BB0084EC809389
S1130420BC00ECEBF0E080818823ECF78091B9000C
S113043008958093BB0084EC8093BC00ECEBF0E067
S113044080818823ECF78091B900089584E9809332
S1130450BC0008950E94530087E20E94750187E260
S11304600E94D40187E20E94D8016FE271E087E222
S11304700E94DC0141E060E087E20E94BB0166E388
S113048071E087E20E94DC0180E00E946200EC01DE
S113049040E067E087E20E94BB01BE0180E090E09B
S11304A00E94A20220E03AE34DE952E40E940803CC
S11304B00E946C0243E451E00E947A00BC0187E28E
S11304C00E94DC012FE986E891E0215080409040B1
S11304D0E1F700C00000D8CF0E9473026894B11104
S11304E00C94020308950E94E70288F09F5798F045
S11304F0B92F9927B751B0F0E1F0660F771F881F25
S1130500991F1AF0BA95C9F714C0B13091F00E943E
S11305100103B1E008950C940103672F782F882715
S1130520B85F39F0B93FCCF3869577956795B39565
S1130530D9F73EF490958095709561957F4F8F4FD4
S11305409F4F0895E89409C097FB3EF490958095D9
S1130550709561957F4F8F4F9F4F9923A9F0F92F85
S113056096E9BB279395F695879577956795B79503
S1130570F111F8CFFAF4BB0F11F460FF1BC06F5FE9
S11305807F4F8F4F9F4F16C0882311F096E911C0FB
S1130590772321F09EE8872F762F05C0662371F01C
S11305A096E8862F70E060E02AF09A95660F771F30
S11305B0881FDAF7880F9695879597F9089557FD60
S11305C09058440F551F59F05F3F71F04795880FBD
S11305D097FB991F61F09F3F79F087950895121654
S11305E013061406551FF2CF4695F1DF08C0161600
S11305F017061806991FF1CF8695710561050894B1
S11306000895E894BB2766277727CB0197F90895C7
S11306100E941B030C948C030E947E0338F00E94FA
S1130620850320F0952311F00C9475030C947B033F
S113063011240C9402030E94DF0270F3959FC1F30E
S1130640950F50E0551F629FF001729FBB27F00D7C
S1130650B11D639FAA27F00DB11DAA1F649F6627D1
S1130660B00DA11D661F829F2227B00DA11D621F20
S1130670739FB00DA11D621F839FA00D611D221FDA
S1130680749F3327A00D611D231F849F600D211DBE
S1130690822F762F6A2F11249F5750409AF0F1F041
S11306A088234AF0EE0FFF1FBB1F661F771F881FAA
S11306B091505040A9F79E3F510580F00C9475036A
S11306C00C9402035F3FE4F3983ED4F38695779548
S11306D06795B795F795E7959F5FC1F7FE2B880F50
S11306E0911D9695879597F9089597F99F6780E8E6
S11306F070E060E008959FEF80EC089500240A9470
S11307001616170618060906089500240A941216E8
S11307101306140605060895092E0394000C11F41B
S1130720882352F0BB0F40F4BF2B11F460FF04C0C8
S11307306F5F7F4F8F4F9F4F0895AEE0B0E0E3EAC5
S1130740F3E00C945E060D891E8986E08C831A837F
S113075009838FEF9FE79E838D83AE01475E5F4FD2
S11307606F89788DCE0101960E94BF03EF81F885D1
S1130770E00FF11F10822E96E4E00C947A06ABE0B1
S1130780B0E0E5ECF3E00C9450066C017B018A01C7
S1130790FC0117821682838181FFCCC1CE010196B0
S11307A03C01F6019381F70193FD859193FF8191BB
S11307B07F01882309F4BAC1853239F493FD859108
S11307C093FF81917F01853229F4B60190E00E9464
S11307D0B605E7CF912C212C312CFFE1F315D8F08D
S11307E08B3279F038F4803279F08332A1F4232DFE
S11307F020611DC08D3261F0803369F4232D2160A6
S113080016C0832D8260382EE32DE4603E2E2AC06C
S1130810F32DF8601DC037FC2DC020ED280F2A30C1
S113082040F08E32B9F436FC81C1232D2064322E7F
S113083019C036FE06C08AE0989E200D1124922E1F
S113084011C0EAE02E9E200D1124222EF32DF06219
S11308503F2E08C08C3621F4832D8068382E02C0C8
S1130860883641F4F70193FD859193FF81917F01CF
S11308708111B3CF982F9F7D9554933028F40C5F4A
S11308801F4F9FE399830DC0833631F0833771F096
S1130890833509F059C021C0F801808189830E5F36
S11308A01F4F88248394912C530113C02801F2E034
S11308B04F0E511CF801A080B18036FE03C0692D93
S11308C070E002C06FEF7FEFC5010E94AB054C01E1
S11308D08201F32DFF773F2E16C0280122E0420E3D
S11308E0511CF801A080B18036FE03C0692D70E070
S11308F002C06FEF7FEFC5010E94A0054C01F32DEC
S1130900F0683F2E820133FC1BC0822D90E08816D4
S11309109906B0F4B60180E290E00E94B6052A94EC
S1130920F4CFF50137FC859137FE81915F01B60163
S113093090E00E94B60521102A9421E0821A9108C1
S11309408114910471F7E8C0843611F0893641F5B9
S1130950F80137FE07C060817181828193810C5F49
S11309601F4F08C060817181072E000C880B990B02
S11309700E5F1F4FF32DFF763F2E97FF09C0909512
S11309808095709561957F4F8F4F9F4FF0683F2EF4
S11309902AE030E0A3010E94F205882E861845C0A3
S11309A0853731F4232D2F7EB22E2AE030E025C086
S11309B0932D997FB92E8F36C1F018F4883579F0CC
S11309C0B5C0803719F0883721F0B0C0E92FE06155
S11309D0BE2EB4FE0DC0FB2DF460BF2E09C034FE44
S11309E00AC0292F2660B22E06C028E030E005C0D8
S11309F020E130E002C020E132E0F801B7FE07C098
S1130A0060817181828193810C5F1F4F06C0608178
S1130A10718180E090E00E5F1F4FA3010E94F205F8
S1130A20882E8618FB2DFF773F2E36FE0DC0232D12
S1130A302E7FA22E891458F434FE0BC032FC09C058
S1130A40832D8E7EA82E05C0B82CA32C03C0B82CF1
S1130A5001C0B92CA4FE0FC0FE01E80DF11D808178
S1130A60803321F49A2D997EA92E09C0A2FE06C0D6
S1130A70B394B39404C08A2D867809F0B394A3FC8C
S1130A8011C0A0FE06C0B21488F4280C922C9B1846
S1130A900EC0B21460F4B60180E290E00E94B60584
S1130AA0B394F7CFB21418F42B1802C0982C212C4D
S1130AB0A4FE10C0B60180E390E00E94B605A2FE39
S1130AC017C0A1FC03C088E790E002C088E590E06D
S1130AD0B6010CC08A2D867859F0A1FE02C08BE2C3
S1130AE001C080E2A7FC8DE2B60190E00E94B60549
S1130AF0891438F4B60180E390E00E94B6059A9414
S1130B00F7CF8A94F301E80DF11D8081B60190E0DE
S1130B100E94B6058110F5CF222009F442CEB60119
S1130B2080E290E00E94B6052A94F6CFF601868111
S1130B30978102C08FEF9FEF2B96E2E10C946C0635
S1130B40FC010590615070400110D8F78095909594
S1130B508E0F9F1F0895FC01615070400190011099
S1130B60D8F7809590958E0F9F1F08950F931F932C
S1130B70CF93DF93FB01238121FD03C08FEF9FEF10
S1130B802CC022FF16C0468157812481358142172B
S1130B90530744F4A081B1819D012F5F3F4F3183FE
S1130BA020838C93268137812F5F3F4F37832683A1
S1130BB014C08B01EC01FB010084F185E02D099543
S1130BC0892BE1F6D80116968D919C911797019681
S1130BD017969C938E931697CE01DF91CF911F9118
S1130BE00F910895FA01AA27283051F1203181F19B
S1130BF0E8946F936E7F6E5F7F4F8F4F9F4FAF4F21
S1130C00B1E03ED0B4E03CD0670F781F891F9A1F33
S1130C10A11D680F791F8A1F911DA11D6A0F711DE7
S1130C20811D911DA11D20D009F468943F912AE0F3
S1130C30269F11243019305D3193DEF6CF010895DB
S1130C40462F4770405D4193B3E00FD0C9F7F6CF0C
S1130C50462F4F70405D4A3318F0495D31FD4052D4
S1130C60419302D0A9F7EACFB4E0A695979587956A
S1130C7077956795BA95C9F7009761057105089549
S1130C809B01AC010A2E06945795479537952795F5
S1130C90BA95C9F7620F731F841F951FA01D08958D
S1130CA02F923F924F925F926F927F928F929F9278
S1130CB0AF92BF92CF92DF92EF92FF920F931F9366
S1130CC0CF93DF93CDB7DEB7CA1BDB0B0FB6F89417
S1130CD0DEBF0FBECDBF09942A88398848885F8457
S1130CE06E847D848C849B84AA84B984C884DF80C8
S1130CF0EE80FD800C811B81AA81B981CE0FD11DAC
S1130D000FB6F894DEBF0FBECDBFED010895F89481
S1050D10FFCF0F
S1130D1220302E3030256C640020302E30256C6457
S1130D220020302E256C64002025632E2563256364
S1130D32256300256325632E2563256325630055FA
S1130D42205B565D3A0064736866646866646A662A
S10F0D526864002045525230522000001A
S9030000FC
