:100000000C94B5000C94F3010C94D2000C94D20023
:100010000C94D2000C94D2000C94D2000C94D20018
:100020000C94D2000C94D2000C94D2000C94D20008
:100030000C94D2000C94D2000C94D2000C94D200F8
:100040000C94D2000C94D2000C94D2000C94D200E8
:100050000C94D2000C94D2000C94D2000C94D200D8
:100060000C94D2000C94D2006E616E00696E660032
:1000700000407A10F35A00A0724E18090010A5D45F
:10008000E80000E87648170000E40B54020000CABC
:100090009A3B000000E1F505000080969800000002
:1000A00040420F000000A086010000001027000061
:1000B0000000E803000000006400000000000A00E7
:1000C000000000000100000000002C76D888DC67EA
:1000D0004F0823DFC1DFAE59E1B1B796E5E3E45342
:1000E000C63AE651997696E8E6C28426EB898C9B5F
:1000F00062ED407C6FFCEFBC9C9F40F2BAA56FA5FF
:10010000F490055A2AF75C936B6CF9676DC11BFC80
:10011000E0E40D47FEF520E6B500D0ED902E03009B
:10012000943577050080841E080000204E0A0000E8
:1001300000C80C333333330F986E12831141EF8DA7
:100140002114893BE65516CFFEE6DB18D1844B38E7
:100150001BF77C1D901DA4BBE424203284725E2218
:100160008100C9F124ECA1E53D2711241FBECFEF8A
:10017000D8E0DEBFCDBF11E0A0E0B1E0EAE2F9E1F6
:1001800002C005900D92AC33B107D9F721E0ACE382
:10019000B1E001C01D92A236B207E1F70E945A02F7
:1001A0000C94930C0C940000CF93C82F84600E9491
:1001B000580400008C2F8B7F0E9458040000CF91C0
:1001C0000895CF93C82F0E9458048C2F0E94D4000A
:1001D000CF9108951F93CF93DF93182FD62FD07F01
:1001E000D42B80E1689FB0011124C42FC62B0E943C
:1001F0003F04812F0E944A048D2F0E9458048D2FA6
:100200000E94D4008C2F0E9458048C2F0E94D4008E
:100210000E946504DF91CF911F91089548E00E94EC
:10022000EA0083ED90E30197F1F700C00000089524
:10023000CF93C82F8FE99FE00197F1F700C000002E
:100240000E9433040E943F048C2F0E944A0480E3E2
:100250000E94E10081EE94E00197F1F700C00000F8
:1002600080E30E94E10094E29A95F1F700C080E3F8
:100270000E94E10080E18A95F1F700C080E20E94CF
:10028000E10090E19A95F1F700C00E94650468E2F0
:100290008C2F0E940E0168E08C2F0E940E0161E0FD
:1002A0008C2F0E940E0166E08C2F0E940E0180E0D0
:1002B000CF91089549E00E94EA000895613188F4E1
:1002C000433088F4411105C060680E940E0180E04F
:1002D0000895413051F4605C60680E940E0180E036
:1002E000089581E0089581E0089580E0089561E037
:1002F0000E940E0108956CE00E940E0108951F9364
:10030000CF93DF93EB016881662341F0182F21968C
:10031000812F0E945A0169916111FACFDF91CF912B
:100320001F9108959C0140E050E060E472E48FE08A
:1003300090E00E94710A215031093093C50020934A
:10034000C40086E08093C20088E98093C10078945D
:100350000895E0ECF0E0908195FFFDCF8093C6001A
:100360000895CF93DF93EC018881882359F00E9490
:10037000A90189918A3019F48DE00E94A901888130
:100380008111F5CFDF91CF910895982F80648093EC
:100390007C0087E880937A00EEE7F0E0408121E07E
:1003A00030E0B90102C0660F771F9A95E2F7CB01E2
:1003B000842B80838FE39CE90197F1F700C0000054
:1003C0000895EAE7F0E0808180648083808184FF83
:1003D000FDCFEAE7F0E08081806180838091780042
:1003E0009091790008951F920F920FB60F921124E9
:1003F0002F933F934F935F936F937F938F939F932D
:10040000AF93BF93EF93FF9389B1887090E090937F
:10041000520180935101892BB9F020E030E040E88F
:100420005FE3609145017091460180914701909191
:1004300048010E946A0460934501709346018093CD
:1004400047019093480116C020E030E040E85FE3A8
:10045000609145017091460180914701909148015A
:100460000E9469046093450170934601809347019F
:1004700090934801FF91EF91BF91AF919F918F9120
:100480007F916F915F914F913F912F910F900FBE90
:100490000F901F90189568BD8130910519F45F9AEF
:1004A0005E980895019619F45F985E9A08955F9892
:1004B0005E98089580910C010E94180180910C01B2
:1004C0000E94770180910C010E947B016DE071E038
:1004D00080910C010E947F012FEF8BE792E9215060
:1004E00080409040E1F700C0000080910C010E9424
:1004F000770140E060E080910C010E945E016DE1B7
:1005000071E080910C010E947F0141E060E08091E8
:100510000C010E945E0166E371E080910C010E9473
:100520007F0180E895E20E94920180E090E00E94C5
:10053000C5018AB1806E8AB984B5836284BD85B5F0
:10054000836085BD83E08093690081E08DBB8CBBB7
:100550007894C1E2D1E00F2EF3E52F2EF1E03F2E8B
:10056000F02D0DE511E00E94E101E8E7F0E0608187
:10057000718180E090E00E94830520E030E040E15E
:1005800052E40E943A0620E030EC4FE754E40E9427
:10059000DB040E94A70620E030E040E251E40E9424
:1005A0003A0660934D0170934E0180934F019093F2
:1005B00050012AE939E848E854E40E943A0620E06C
:1005C00030E044EB53E40E94DB040E94A7066093F2
:1005D000490170934A0180934B0190934C01209103
:1005E00045013091460140914701509148010E94D8
:1005F00069040E944D05072E000C880B990B0E9480
:1006000085056B017C018090410190904201A09092
:100610004301B0904401A50194010E9469042AE0BD
:1006200037ED43E25DE30E94DB042B013C01809146
:100630003C01811126C0A5019401C701B6010E94A9
:100640006A042AE037ED43E25DE30E943A0620E0C7
:1006500030E040E05FE30E943A069B01AC0160910C
:100660003D0170913E0180913F01909140010E94B7
:100670006A0460933D0170933E0180933F01909323
:10068000400120913D0130913E0140913F01509148
:1006900040016091040170910501809106019091E3
:1006A00007010E943A064B015C012091080130913C
:1006B000090140910A0150910B01C701B6010E9446
:1006C0003A069B01AC01C501B4010E946A044B01CA
:1006D0005C01209100013091010140910201509193
:1006E0000301C301B2010E943A069B01AC01C5019E
:1006F000B4010E946A042B013C014B015C01E894A7
:10070000B7F820E030E04FE753E4C501B4010E94A0
:100710003506181664F4F1E0F0933C010F2E812C9D
:10072000912CFFE7AF2EF3E4BF2EF02D02C0109204
:100730003C0120E030E0A901C301B2010E94D604CF
:10074000882324F066246394712C04C066246A9480
:1007500077247A94C501B4010E944D05862D972D0A
:100760000E944B02C0924101D0924201E0924301AB
:10077000F0924401809150018F9380914F018F93AB
:1007800080914E018F9380914D018F93DF93CF9392
:10079000E8E5F1E0FF93EF930E94130C80914C0188
:1007A0008F9380914B018F9380914A018F93809119
:1007B00049018F93DF93CF933F922F920E94130CA6
:1007C000809148018F93809147018F9380914601DA
:1007D0008F93809145018F93DF93CF931F930F9356
:1007E0000E94130C40E064E080910C010E945E01C5
:1007F00068E571E080910C010E947F0140E06AE0B1
:1008000080910C010E945E01B10180910C010E9457
:100810007F0141E06AE080910C010E945E01B80115
:1008200080910C010E947F0187E291E00E94B1015A
:10083000C1010E94B10181E391E00E94B10185E311
:1008400091E00E94B101C8010E94B1018AE391E0E8
:100850000E94B1018DB79EB748960FB6F8949EBF1F
:100860000FBE8DBF80CE88E08093B800E9EBF0E04A
:100870008081908182708160892B8083089584EAD1
:100880008093BC00ECEBF0E080818823ECF7809152
:10089000B9000895880F8093BB0084EC8093BC005E
:1008A000ECEBF0E080818823ECF78091B9000895AB
:1008B0008093BB0084EC8093BC00ECEBF0E0808183
:1008C0008823ECF78091B900089584E98093BC00F7
:1008D00008955058BB27AA270E9481040C94FB0559
:1008E0000E94ED0538F00E94F40520F039F49F3F96
:1008F00019F426F40C94EA050EF4E095E7FB0C9449
:10090000E405E92F0E940C0658F3BA176207730733
:100910008407950720F079F4A6F50C942E060EF4C2
:10092000E0950B2EBA2FA02D0B01B90190010C01FF
:10093000CA01A0011124FF27591B99F0593F50F417
:10094000503E68F11A16F040A22F232F342F44276F
:10095000585FF3CF469537952795A795F040539567
:10096000C9F77EF41F16BA0B620B730B840BBAF037
:100970009150A1F0FF0FBB1F661F771F881FC2F7A2
:100980000EC0BA0F621F731F841F48F487957795B6
:100990006795B795F7959E3F08F0B0CF9395880F70
:1009A00008F09927EE0F9795879508950E94C00546
:1009B00008F481E008950E94EF040C94FB050E9466
:1009C000F40558F00E94ED0540F029F45F3F29F04E
:1009D0000C94E40551110C942F060C94EA050E9426
:1009E0000C0668F39923B1F3552391F3951B550B2E
:1009F000BB27AA2762177307840738F09F5F5F4FF2
:100A0000220F331F441FAA1FA9F335D00E2E3AF030
:100A1000E0E832D091505040E695001CCAF72BD048
:100A2000FE2F29D0660F771F881FBB1F2617370799
:100A30004807AB07B0E809F0BB0B802DBF01FF27CB
:100A400093585F4F3AF09E3F510578F00C94E405BF
:100A50000C942F065F3FE4F3983ED4F38695779588
:100A60006795B795F7959F5FC9F7880F911D969584
:100A7000879597F90895E1E0660F771F881FBB1FE0
:100A8000621773078407BA0720F0621B730B840B8D
:100A9000BA0BEE1F88F7E09508950E9454056894FC
:100AA000B1110C942F0608950E94140688F09F57E8
:100AB00098F0B92F9927B751B0F0E1F0660F771F82
:100AC000881F991F1AF0BA95C9F714C0B13091F078
:100AD0000E942E06B1E008950C942E06672F782F01
:100AE0008827B85F39F0B93FCCF38695779567953D
:100AF000B395D9F73EF490958095709561957F4FA9
:100B00008F4F9F4F0895E89409C097FB3EF490954E
:100B10008095709561957F4F8F4F9F4F9923A9F0D6
:100B2000F92F96E9BB279395F69587957795679565
:100B3000B795F111F8CFFAF4BB0F11F460FF1BC0A9
:100B40006F5F7F4F8F4F9F4F16C0882311F096E93C
:100B500011C0772321F09EE8872F762F05C06623EA
:100B600071F096E8862F70E060E02AF09A95660FA3
:100B7000771F881FDAF7880F9695879597F908955C
:100B8000990F0008550FAA0BE0E8FEEF161617069E
:100B9000E807F907C0F012161306E407F50798F006
:100BA000621B730B840B950B39F40A2661F0232B1F
:100BB000242B252B21F408950A2609F4A140A6959B
:100BC0008FEF811D811D089597F99F6780E870E080
:100BD00060E008959FEF80EC089500240A941616B3
:100BE000170618060906089500240A94121613061B
:100BF000140605060895092E0394000C11F48823A9
:100C000052F0BB0F40F4BF2B11F460FF04C06F5FC4
:100C10007F4F8F4F9F4F089557FD9058440F551F9A
:100C200059F05F3F71F04795880F97FB991F61F06E
:100C30009F3F79F087950895121613061406551FE5
:100C4000F2CF4695F1DF08C0161617061806991F51
:100C5000F1CF86957105610508940895E894BB2746
:100C600066277727CB0197F908950E94C00508F4FD
:100C70008FEF08950E944D060C94FB050E94ED0530
:100C800038F00E94F40520F0952311F00C94E4054F
:100C90000C94EA0511240C942F060E940C0670F3A4
:100CA000959FC1F3950F50E0551F629FF001729F11
:100CB000BB27F00DB11D639FAA27F00DB11DAA1F20
:100CC000649F6627B00DA11D661F829F2227B00D6D
:100CD000A11D621F739FB00DA11D621F839FA00DF8
:100CE000611D221F749F3327A00D611D231F849F48
:100CF000600D211D822F762F6A2F11249F5750409F
:100D00009AF0F1F088234AF0EE0FFF1FBB1F661F19
:100D1000771F881F91505040A9F79E3F510580F0E2
:100D20000C94E4050C942F065F3FE4F3983ED4F353
:100D3000869577956795B795F795E7959F5FC1F786
:100D4000FE2B880F911D9695879597F908950E941F
:100D50001406E8F09E37E8F09639B8F49E3848F467
:100D6000672F782F8827985FF9CF869577956795B5
:100D700093959539D0F3B62FB1706B0F711D811D0E
:100D800020F487957795679593950C94CB060C94F2
:100D9000E6060C942F06882371F4772321F09850EF
:100DA000872B762F07C0662311F499270DC0905129
:100DB000862B70E060E02AF09A95660F771F881FF7
:100DC000DAF7880F9695879597F908959F3F31F048
:100DD000915020F4879577956795B795880F911D69
:100DE0009695879597F90895A0E1B0E0EAEFF6E0CF
:100DF0000C94900A7C011B016A01FC011782168287
:100E0000838181FF44C39E012F5F3F4F3901F7016A
:100E10009381F10193FD859193FF81911F018823B7
:100E200009F431C3853239F493FD859193FF8191A3
:100E30001F01853239F4B70190E00E94D70B5601AB
:100E40006501E5CF10E0512C912CFFE1F915D8F0A8
:100E50008B3279F038F4803279F08332A1F4F92DB5
:100E6000F0612EC08D3261F0803369F4292D21604C
:100E70002DC0392D3260932E892D8460982E2AC082
:100E8000E92DE86015C097FC2DC020ED280F2A3011
:100E900088F496FE06C03AE0139F200D1124122F0D
:100EA00019C08AE0589E200D1124522EE92DE062CF
:100EB0009E2E10C08E3231F496FCE5C2F92DF064FE
:100EC0009F2E08C08C3621F4292D2068922E02C056
:100ED000883641F4F10193FD859193FF81911F01C3
:100EE0008111B3CF9BEB980F933020F4992D906133
:100EF000805E07C09BE9980F933008F066C1992D7A
:100F00009F7E96FF16E09F73992E853619F49064A4
:100F1000992E08C0863621F4392F3068932E02C0EE
:100F20001111115097FE07C01C3350F44424439410
:100F3000410E27E00BC0183038F027E017E005C05D
:100F400027E09CE3492E02C0212F412C560184E06A
:100F5000A80EB11CF6016081718182819381042DFC
:100F6000A3010E94E90A6C01F981FC87F0FF02C02D
:100F7000F3FF06C091FC06C092FE06C000E205C069
:100F80000DE203C00BE201C000E08C858C7019F00B
:100F900001115AC29BC297FE10C04C0CFC85F4FF95
:100FA00004C08A81813309F44A94141474F528E04A
:100FB000241578F588E0482E2CC096FC2AC0812F95
:100FC00090E08C159D059CF03CEFC3163FEFD306D7
:100FD00074F0892D8068982E0AC0E2E0F0E0EC0FF2
:100FE000FD1FE10FF11D8081803319F411501111A3
:100FF000F4CF97FE0EC044244394410E812F90E01D
:10100000C816D9062CF41C1904C04424439401C00A
:1010100010E097FE06C01C141D0434F4C6010196AE
:1010200005C085E090E002C081E090E001110196EA
:10103000112331F0212F30E02F5F3F4F820F931F9C
:10104000252D30E08217930714F4581A01C0512C53
:10105000892D897049F4552039F0B70180E290E07C
:101060000E94D70B5A94F7CF002329F0B701802FA5
:1010700090E00E94D70B93FC09C0552039F0B701CE
:1010800080E390E00E94D70B5A94F7CF97FE4CC0B4
:101090004601D7FE02C0812C912CC60188199909FE
:1010A000F301E80FF91FFE87ED8796012419310936
:1010B000388B2F87012F10E01195019511093FEF13
:1010C0008316930629F4B7018EE290E00E94D70BB5
:1010D000C814D9044CF08F8598898815990524F493
:1010E000ED85FE85818101C080E3F1E08F1A9108D2
:1010F0002D853E852F5F3F4F3E872D8780169106B9
:101100002CF0B70190E00E94D70BD9CFC814D904B6
:1011100041F49A81963320F4953319F43C8534FFD9
:1011200081E3B70190E04EC08A81813319F09C853C
:101130009F7E9C87B70190E00E94D70B111105C0DC
:1011400094FC18C085E690E017C0B7018EE290E0ED
:101150000E94D70B1E5F82E001E0080FF301E80F49
:10116000F11D8081B70190E00E94D70B802F011301
:10117000F3CFE6CF85E490E0B7010E94D70BD7FC10
:1011800006C0C114D10441F4EC85E4FF05C0D1943C
:10119000C194D1088DE201C08BE2B70190E00E94BA
:1011A000D70B80E32AE0C216D1042CF08F5FFAE05F
:1011B000CF1AD108F7CFB70190E00E94D70BB70143
:1011C000C601C0960E94D70B54C1833631F08337D5
:1011D00079F0833509F056C020C0560132E0A30EE5
:1011E000B11CF6018081898301E010E0630112C027
:1011F0005601F2E0AF0EB11CF601C080D18096FE20
:1012000003C0612F70E002C06FEF7FEFC6010E9444
:10121000CC0B8C01F92DFF7714C0560122E0A20EF1
:10122000B11CF601C080D18096FE03C0612F70E032
:1012300002C06FEF7FEFC6010E94C10B8C01F92D38
:10124000F0689F2EF3FD1AC0852D90E0081719074E
:10125000A8F4B70180E290E00E94D70B5A94F4CF33
:10126000F60197FC859197FE81916F01B70190E09F
:101270000E94D70B51105A94015011090115110504
:1012800079F7F7C0843611F0893661F5560197FE7B
:1012900009C024E0A20EB11CF60160817181828137
:1012A00093810AC0F2E0AF0EB11CF601608171813A
:1012B000072E000C880B990BF92DFF769F2E97FFB8
:1012C00009C090958095709561957F4F8F4F9F4F86
:1012D000F0689F2E2AE030E0A3010E94350CC82E52
:1012E000C6183FC0092D853721F40F7E2AE030E073
:1012F0001DC0097F8F3691F018F4883559F0C3C0AE
:10130000803719F0883711F0BEC0006104FF09C0B2
:10131000046007C094FE08C0066006C028E030E004
:1013200005C020E130E002C020E132E0560107FFB5
:1013300009C084E0A80EB11CF60160817181828130
:10134000938108C0F2E0AF0EB11CF601608171819B
:1013500080E090E0A3010E94350CC82EC6180F77DC
:10136000902E96FE0BC0092D0E7FC11650F494FEF0
:101370000AC092FC08C0092D0E7E05C0DC2C092D88
:1013800003C0DC2C01C0D12E04FF0DC0FE01EC0D0A
:10139000F11D8081803311F4097E09C002FF06C06F
:1013A000D394D39404C0802F867809F0D39403FD9E
:1013B00011C000FF06C01C2DD51480F4150D1D1999
:1013C0000DC0D51458F4B70180E290E00E94D70B0D
:1013D000D394F7CFD51410F45D1801C0512C04FF3D
:1013E00010C0B70180E390E00E94D70B02FF17C046
:1013F00001FD03C088E790E002C088E590E0B701F6
:101400000CC0802F867859F001FF02C08BE201C02A
:1014100080E207FD8DE2B70190E00E94D70BC11674
:1014200038F4B70180E390E00E94D70B1150F7CF5A
:10143000CA94F301EC0DF11D8081B70190E00E9488
:10144000D70BC110F5CF15C0F4E0F51560F584E0B9
:10145000581A93FE1FC0011127C02C8523FF2AC0F4
:1014600008E610E0392D3071932EF8018491811136
:1014700024C0552009F4E4CCB70180E290E00E943A
:10148000D70B5A94F6CFF7018681978126C08FEF4C
:101490009FEF23C0B70180E290E00E94D70B5A94DF
:1014A0005110F8CFD8CF512CB701802F90E00E9477
:1014B000D70BD3CF0CE610E0D5CF91108052B701F7
:1014C00090E00E94D70B0F5F1F4FCFCF23E0251571
:1014D00010F483E0BDCF512CC0CF6096E2E10C94B4
:1014E000AC0A052E97FB1EF400940E94880A57FD53
:1014F00007D00E94C70A07FC03D04EF40C94880A58
:1015000050954095309521953F4F4F4F5F4F08952F
:1015100090958095709561957F4F8F4F9F4F08955F
:101520002F923F924F925F926F927F928F929F92F3
:10153000AF92BF92CF92DF92EF92FF920F931F93E1
:10154000CF93DF93CDB7DEB7CA1BDB0B0FB6F89492
:10155000DEBF0FBECDBF09942A88398848885F84D2
:101560006E847D848C849B84AA84B984C884DF8043
:10157000EE80FD800C811B81AA81B981CE0FD11D27
:101580000FB6F894DEBF0FBECDBFED010895A1E206
:101590001A2EAA1BBB1BFD010DC0AA1FBB1FEE1FED
:1015A000FF1FA217B307E407F50720F0A21BB30B38
:1015B000E40BF50B661F771F881F991F1A9469F7B4
:1015C00060957095809590959B01AC01BD01CF0110
:1015D0000895283008F027E03327DA01990F311DEC
:1015E00087FD916000966105710539F432602E5FC8
:1015F0003D9330E32A95E1F708959F3F30F080381E
:101600007105610509F03C5F3C5F3D93913008F046
:101610008068911DDF93CF931F930F93FF92EF92FA
:10162000192F987F9695E92F96959695E90FFF27A4
:10163000E653FF4F99273327EE24FF24A701E70144
:1016400005900894079428F4360FE71EF81E491FEA
:10165000511D660F771F881F991F0694A1F70590EB
:10166000079428F4E70EF81E491F561FC11D770F77
:10167000881F991F661F0694A1F70590079428F408
:10168000F80E491F561FC71FD11D880F991F661FCF
:10169000771F0694A1F70590079420F4490F561F71
:1016A000C71FD81F990F661F771F881F0694A9F7B9
:1016B00084911095177041F0D695C7955795479529
:1016C000F794E7941A95C1F7E0E7F0E06894159075
:1016D000159135916591959105907FE27395E1188B
:1016E000F10A430B560BC90BD009C0F7E10CF11EF0
:1016F000431F561FC91FD01D7EF4703311F48A9505
:10170000E6CFE894015030F0080F0AF400270217E2
:1017100008F4202F2395022F7A3328F079E37D9364
:101720002A95E9F710C07D932A9589F60694979536
:101730006795379517951794E118F10A430B560BE7
:10174000C90BD00998F023957E9173957A3308F0F0
:1017500070E37C932013B8F77E9170617D9330F035
:10176000839571E37D9370E32A95E1F71124EF905F
:10177000FF900F911F91CF91DF91992787FD909551
:101780000895FC010590615070400110D8F78095D4
:1017900090958E0F9F1F0895FC016150704001903D
:1017A0000110D8F7809590958E0F9F1F08950F9385
:1017B0001F93CF93DF93FB01238121FD03C08FEFA4
:1017C0009FEF2CC022FF16C04681578124813581AE
:1017D0004217530744F4A081B1819D012F5F3F4F11
:1017E000318320838C93268137812F5F3F4F37834E
:1017F000268314C08B01EC01FB010084F185E02DF0
:101800000995892BE1F6D80116968D919C91179731
:10181000019617969C938E931697CE01DF91CF91E8
:101820001F910F910895AEE0B0E0E9E1FCE00C9467
:101830009E0A0D891E8986E08C831A8309838FEFA7
:101840009FE79E838D83AE01475E5F4F6F89788DE2
:10185000CE0101960E94F406EF81F885E00FF11F9A
:1018600010822E96E4E00C94BA0AFA01AA272830D6
:1018700051F1203181F1E8946F936E7F6E5F7F4F5D
:101880008F4F9F4FAF4FB1E03ED0B4E03CD0670FD9
:10189000781F891F9A1FA11D680F791F8A1F911D2C
:1018A000A11D6A0F711D811D911DA11D20D009F47C
:1018B00068943F912AE0269F11243019305D3193BE
:1018C000DEF6CF010895462F4770405D4193B3E0A7
:1018D0000FD0C9F7F6CF462F4F70405D4A3318F04E
:1018E000495D31FD4052419302D0A9F7EACFB4E0FF
:1018F000A6959795879577956795BA95C9F70097B7
:101900006105710508959B01AC010A2E0694579557
:10191000479537952795BA95C9F7620F731F841FAE
:0A192000951FA01D0895F894FFCF55
:10192A00AE47613E713D42410000D84027456D6295
:10193A0065646465642053797374656D0053503A25
:10194A000025342E306600536574706F696E743AE0
:0C195A0000202020002050563A000A0017
:00000001FF
