:0E0000000C944F000C941C010C9400000C9406
:10000E0000000C9400000C9400000C9400000C9462
:10001E0000000C9400000C9400000C9400000C9452
:10002E0000000C9400000C9400000C9400000C9442
:10003E0000000C9400000C9400000C9400000C9432
:10004E0000000C9400000C9400000C9400000C9422
:10005E0000000C9400000C9400001027E8036400CC
:10006E000A00010000100001100001000000000055
:10007E0020004144433A2025660A00000400050092
:10008E007A00020000037E000200020387000000D7
:10009E00F894EE27EFBBF1E0F5BFE5BF8DE0A2E0EF
:1000AE00BB27ED938A95E9F780E098E0A0E0B1E0F8
:1000BE00ED930197E9F7EAE8F0E0859195910097C5
:1000CE0061F0A591B59105901590BF01F0010590D5
:1000DE000D920197E1F7FB01F0CFE0E0EEBBEFEF01
:1000EE00EDBFE8E0EEBFC0E0D3E00C944D01BA9353
:1000FE00AA931A930A93EA81FB8166277727A0E0D9
:10010E00B4E284EF90E066D3DF01CB01E0E1F0E0F2
:10011E0060E070E05FD331978F011093C5000093BC
:10012E00C400E6E0E093C200E8E9E093C1007894F1
:10013E0019810881249608951A931A2FE091C00010
:10014E00E072E1F31093C600199108951A930A9381
:10015E008D01D801EC91E03059F0AC91EDDFD80172
:10016E00AC91AA3011F4ADE0E7DF0F5F1F4FF1CF76
:10017E0049C0BA93AA932897C7D200E010E04E85E3
:10018E005F85F801DE011696EA0FFB1FBF01DA014B
:10019E00EAE0F0E024D3E05DDB01EC93DA01EAE083
:1001AE00F0E0EFD2AF010F5F1F4F042E052A49F783
:1001BE0098010024021603065CF4F9013197DE0162
:1001CE001696AE0FBF1FAC91B7DF21503040F1CF66
:1001DE00A2D2609608951A930A938D01E02FE064DF
:1001EE00E0937C00E7E8E0937A00AEE7B0E06A2F98
:1001FE001C90E02FA1E0AAD2E129A62FEC93AAE051
:10020E00B0E00CD4099119910895E0917A00E06460
:10021E00E0937A00E0917A00E071E1F3E0917A00E8
:10022E00E061E0937A0043D208950A92EA93FA933A
:10023E00EFB7EA93032C042829F0E1E0F0E05E0E1C
:10024E006F1E05C0E52DF62D31975E2E6F2EE991AE
:10025E00EFBFF991E9910990189558D28D012C8133
:10026E003D8108BDE1E0F0E0E217F30711F45F9A7B
:10027E0009C0EFEFFFEFE217F30719F45F985E9AEC
:10028E0002C05F985E9849D226960895EAB1E06E54
:10029E00EAB9E4B5E362E4BDE5B5E360E5BDE0913E
:1002AE008100E260E0938100A0E8B5E220DFA0E0EB
:1002BE00B0E091DFE3E0E0936900E1E0EDBBECBB81
:1002CE007894EFEFFFEFFA93EA93AFEFB0E0C5DF6C
:1002DE009CDFEDD1A4E2B3E066277727E0D2ED9361
:1002EE00FD936D937C93A0912403B091250380918F
:1002FE00260390912703E0E0F0E064EB73E4FCD278
:10030E00DF01CB01E0E0F0EC6FE774E443D3E09360
:10031E002403F09325036093260370932703A72DE0
:10032E00B82D27DFA0E0B3E011DFE4E0F3E0FA93AD
:10033E00EA93E0E8F0E0FA93EA93E0912403F09177
:10034E002503609126037091270375D284E05FD157
:10035E002896A4E0B3E0FADEA2E0B3E0F7DEA8EE62
:10036E00B3E05CD3AECFFFCFCFD19D015E811296AD
:10037E00ED91FC9111973097E9F0D9019DD18F0144
:10038E00309759F00230E0E01E0760F0F801319727
:10039E008F01D9011496ED93FC93D901129691D148
:1003AE0031975083D901ED91FC911197FF230AF0FB
:1003BE0088D105C0D901EFEFFFEFED93FC93ABD1E0
:1003CE0027960895BA93AA9326979ED110E0AC85EE
:1003DE00BD85E0E0F0E0ED93FC93EA89FB89319670
:1003EE00EA8BFB8B3197E4912E2FE03009F408C194
:1003FE00E12FE03031F4253211F411E001C067D164
:10040E00FEC0E130A1F4253211F461D1F7C012E043
:10041E0040E000E02D3211F401E0F1C02B3211F476
:10042E004BE2EDC0203211F440E2E9C002C0E230EE
:10043E0039F450E013E0203311F40068E0C003C03B
:10044E00E33009F0DCC0203310F02A3308F007C087
:10045E00AAE05A9F502DE22FE0535E0FD0C0E22F3C
:10046E00E33639F43BD1E889F989A481AA933CD1CA
:10047E00C5C0E33729F432D13DD100D11E2F07C0BC
:10048E00E03749F42BD136D105D11E2F086002601A
:10049E000F7730E037C0E43611F0E93611F404601E
:1004AE0002C0E53731F4E8E6F0E0EE83FF8315E0B5
:1004BE000CC0E83511F4086003C0E83709F09EC09F
:1004CE00E2E7F0E0EE83FF8314E002FF15C006D1F1
:1004DE00A889B9891496ED91FD91EA87FB87AB85C2
:1004EE00AA2322F41FD1EA87FB874DE2403011F098
:1004FE001F5F01C00B7F06C0F1D0A889B989DCD07F
:10050E00EA87FB8700FD10C0151770F407FF08C0BF
:10051E0002FF04C00B7F242F115001C020E301C045
:10052E0020E2D5D05150F0CF312F01FF16C0303020
:10053E0099F003FF06C0EE81FF812591EE83FF83C4
:10054E0005C0AE81BF812D91AE83BF83C0D0503028
:10055E0009F051503150EBCF48C020E3EE81FF81BE
:10056E0066D1E887F987EE81FF813296EE83FF83AD
:10057E00E885F985AA85BB85AE17BF0750F02F5FBA
:10058E00A885B985EA85FB85EA1BFB0BEA87FB8705
:10059E00EFCF2A3328F003FF02C0295F01C0295D87
:1005AE0004FD19C0213320F4A885B985119709F4EB
:1005BE0009C0531710F000FF01C011C020E207FF61
:1005CE000AC020E3006102FF06C00B7F4A938CD065
:1005DE00503009F051507BD0503009F0515031500D
:1005EE00A885B985129708F0B8CF00FF07C0503024
:1005FE0029F05150E0E2EA9377D0F9CF10E0EDCE3A
:10060E00AC85BD85ED91FD9186D064960895FF92DF
:10061E00F82E269779D0FE010024EF0DF01D4685A9
:10062E005785042E052A19F4EFEFFFEF23C0DE01E4
:10063E0018960024AF0DB01D8D0148875987E0E054
:10064E00EA87EB87DE011C960024AF0DB01DED91FD
:10065E00FD91FA93EA931A930A93EBEBF1E0FA9376
:10066E00EA93DE011C96AEDE9F01A885B985E0E017
:10067E00EC93F90150D02C96FF900895BA93AA935B
:10068E00A991B991EE27FF276D91662311F031964E
:10069E00FBCF0895BA93AA93AA27BB27E991F991A4
:1006AE000590002011F01196FBCFFD010895E09109
:1006BE007800F091790008951496ED91FC911197C0
:1006CE000895ED91FD913196FE93EE9308952A9340
:1006DE00AD85BE85EF85F88909950895E889F98974
:1006EE003497E88BF98B0895AD85BE85EF85F88933
:1006FE0009950895A889B9891496ED91FD91EE8317
:10070E00FF83AE81BF8108955A934A933A932A93F9
:10071E001A930A9308955D814C813B812A81198138
:10072E0008810895F195E195F0400895F095609552
:10073E007095E195FF4F6F4F7F4F0895B09580955F
:10074E009095A195BF4F8F4F9F4F0895EE230E2E7C
:10075E00EA2F19F0EE0F0A94E9F7089500241124F8
:10076E0090E1AA0FBB1F001C111C0E1A1F0A18F4D1
:10077E000E0E1F1E01C0A1609A9599F7FD01D001C2
:10078E0008953BD0EBDF0EF4CDDF08953F934F93EA
:10079E005F9300241124A00130E2AA0FBB1F881F13
:1007AE00991F001C111C441F551F0E1A1F0A460BC1
:1007BE00570B28F40E0E1F1E461F571F01C0A160B7
:1007CE003A9559F7FD01BC01D001CA015F914F91D5
:1007DE003F91089520D0DADF0EF4A8DF0895E89453
:1007EE00B7FF04C0B195A195B0406894F7FD9ADFAC
:1007FE00B5DFFD010EF496DF0895E894F7FF02C011
:10080E0091DF6894B7FF06C0B195A195B04000F88E
:10081E00039400FA0895E89477FF02C087DF689486
:10082E0097FF04C08BDF00F8039400FA089505903B
:10083E00F491E02D08957A936A93FA93EA930895CA
:10084E00552342F4503811F4E0FF04C03196691F6D
:10085E00791F6BF050E8572711F45F933CC05F3F50
:10086E0031F0660F000C57956795752F08955F93BD
:10087E0000200AF03BC034C050E8192E1522880F14
:10088E00991F9527550F879550E8072E0522660F5D
:10089E00771F7527550F67950895689401C0E894E2
:1008AE00309760407040B1F0002426F0772312F4A8
:1008BE0000943CDF172E7EE1112032F07A95EE0F78
:1008CE00FF1F661F111CF9CFEF2FF62F612D5F93BF
:1008DE00C1DF5F910895EE27FF27BF015F91089555
:1008EE00EFEFFFEF6FE77FEF5F910895EFEFFFEF11
:1008FE006FE77FE75F9108955F93BEDF703859F31E
:10090E00903849F301240894791F23F424F300202E
:10091E003AF3ECCF0F921F932F933F934F931127E0
:10092E0022279927689FA0018F9F302D410D591FB7
:10093E006B9F300D411D591F8E9F27D0BF9F25D015
:10094E006A9F23D0BE9F1DD0AF9F1BD0AE9F110DAF
:10095E00291F391F491F591FE32FF42F652F522FBF
:10096E004F913F912F911F910F9066232AF0550FB3
:10097E00EE1FFF1F661F02C073954BF261DF5F9182
:10098E000895100D211D391F02C0200D311D491F64
:10099E00591F08955F9370DF703821F411200AF407
:1009AE009FCFA4CF903809F496CF01240894970BCB
:1009BE001BF4D4F30020F3CF792F1F932F933F9383
:1009CE004F931124112722273327A90190E2AE1746
:1009DE00BF078607410730F0AE1BBF0B860B410BDE
:1009EE00089401C08894551F221F331F111CAA1F83
:1009FE00BB1F881F441F9A9551F7F901612D4F9126
:100A0E003F912F911F91662332F0550FEE1FFF1F5E
:100A1E00661F7A954BF214DF5F910895109639F0A8
:100A2E00A89580ED97E00197F1F71197C9F7089512
:00000001FF
