:020000000C945E
:1000020057000C9400000C9400000C9400000C9417
:1000120000000C9400000C9400000C9400000C945E
:1000220000000C9400000C9400000C9400000C944E
:1000320000000C9400000C9400000C9400000C943E
:1000420000000C9400000C9400000C9400000C942E
:1000520000000C9400000C9400000C9400000C941E
:1000620000000C94000047696120747269204144C9
:10007200433A20002053797374656D20616C61727C
:100082006D2E200020416C61726D204F7665722EBC
:1000920020000E000003680002000E03740010002E
:1000A200100376000E00200386000000F894EE276D
:1000B200EFBBF1E0F5BFE5BF8DE0A2E0BB27ED931A
:1000C2008A95E9F780E098E0A0E0B1E0ED9301972E
:1000D200E9F7E4E9F0E085919591009761F0A59147
:1000E200B59105901590BF01F00105900D92019711
:1000F200E1F7FB01F0CFE0E0EEBBEFEFEDBFE8E0B0
:10010200EEBFC0E0D3E00C94D7001A931A2FE0910F
:10011200C000E072E1F31093C600199108951A939A
:100122000A938D01D801EC91E03059F0AC91EDDFEA
:10013200D801AC91AA3011F4ADE0E7DF0F5F1F4F99
:10014200F1CF099119910895BA93AA932897A0D053
:1001520000E010E04E855F85F801DE011696EA0F99
:10016200FB1FBF01DA01EAE0F0E0BCD0E05DDB0199
:10017200EC93DA01EAE0F0E0B0D0AF010F5F1F4F7D
:10018200042E052A49F798010024021603065CF49E
:10019200F9013197DE011696AE0FBF1FAC91B5DFA4
:1001A20021503040F1CF7BD060960895569A5E98E8
:1001B200569A5E98E8E0F0E03E2E4F2EEF2FFF2792
:1001C200E7FDFFEFE093C5003092C400E6E0E09364
:1001D200C200E8E9E093C100E5E4E0937C00E7E8CF
:1001E200E0937A004DD0E5E4E0937C0049D0E091C1
:1001F2007A00E064E0937A00E0917A00E071E1F342
:10020200E0917800F091790066277727E0932E033A
:10021200F0932F036093300370933103E0917A00DF
:10022200E061E0937A00A0E0B3E079DFA0912E03D1
:10023200B0912F0389DFAEE0B3E071DFA0912E030E
:10024200B0912F038091300390913103A032E3E00B
:10025200BE07E0E08E07E0E09E0760F05E9B02C012
:100262005E9801C05E9AAAEFB0E058D0A0E1B3E078
:1002720056DF04C0A0E2B3E052DF5E98B4CFFFCFF6
:10028200E0917E00EA60E0937E00AAE0B0E046C022
:100292005A934A933A932A931A930A9308955D8143
:1002A2004C813B812A81198108810895F195E1955C
:1002B200F04008950024112490E1AA0FBB1F001CF6
:1002C200111C0E1A1F0A18F40E0E1F1E01C0A16087
:1002D2009A9599F7FD01D001089512D0EBDF0EF443
:1002E200E5DF0895E894B7FF04C0B195A195B04049
:1002F2006894F7FDDBDFDEDFFD010EF4D7DF089542
:10030200E894F7FF02C0D2DF6894B7FF06C0B19548
:10031200A195B04000F8039400FA0895109639F0C0
:10032200A89580ED97E00197F1F71197C9F7089525
:00000001FF
