:040000000C94CC0090
:100004000C9400000C9400000C9400000C9400006C
:100014000C9400000C9400000C9400000C9400005C
:100024000C9400000C9400000C9400000C9400004C
:100034000C9400000C9400000C9400000C9400003C
:100044000C9400000C9463010C9400000C940000C8
:100054000C9400000C9400000C9400000C94850196
:100064000C940000000000000000000000000102E9
:10007400030453746172742073656E742E2E2E0AF9
:100084000053746174757320436F64653A200053A0
:100094004C41202B2072772073656E74202E2E2EF7
:1000A4000A00427974652073656E742E2E2E0A0040
:1000B4004F776E2061646472657373206D6174633D
:1000C40068202B2057200A005265636569766520F5
:1000D4006120627974652C2073656E742041434BF2
:1000E400200A00526563656976652061206279742F
:1000F400652C2073656E74204E41434B200A0052D8
:100104006563656976652053746F7020636F6E64F0
:100114006974696F6E200A004461746120726563BA
:1001240065697665642066726F6D205457493A207C
:1001340000000A00050068000F00000376000E00AE
:100144000F03850002001D03830013001F039300A7
:100154000E00320385000200400383000E004203B8
:10016400A6000E005003850002005E038300180001
:100174006003B4001B007803CC001C009303E70069
:100184001900AF0303011900C8031C010200E103B5
:1001940083000000F894EE27EFBBF1E0F5BFE5BF64
:1001A4008DE0A2E0BB27ED938A95E9F780E098E023
:1001B400A0E0B1E0ED930197E9F7E6E3F1E0859182
:1001C4009591009761F0A591B59105901590BF01A7
:1001D400F00105900D920197E1F7FB01F0CFE0E00B
:1001E400EEBBEFEFEDBFE8E0EEBFC0E0D3E00C9470
:1001F4001302BA93AA931A930A93EA81FB8166279E
:1002040077273AD1DF01CB01E0E1F0E060E070E074
:100214009ED131978F011093C5000093C400E6E08E
:10022400E093C200E8E9E093C10078941981088161
:10023400249608951A931A2FE091C000E072E1F316
:100244001093C600199108951A930A938D01D80149
:10025400EC91E03059F0AC91EDDFD801AC91AA30CB
:1002640011F4ADE0E7DF0F5F1F4FF1CF0991199152
:1002740008952FD11A2F0C813D81E32FEE0FE00F4B
:10028400E093BA00E091B900EC7FE093B900E12F6C
:10029400F0E06F2F660F660B762FEED0E051F04042
:1002A40060407040DF01CB01E2E0F0E060E070E02C
:1002B4004ED1E093B800E5E4E093BC000FD126965C
:1002C4000895AA93BA93EA93FA93EFB7EA93E1E015
:1002D400F0E07E2E8F2EE2E3F0E05E166F0664F40B
:1002E400E52DF62D31965E2E6F2E3197E95BFB4F8F
:1002F400DF01E091C600EC93E991EFBFF991E99138
:10030400B991A99118950A921A92FA926A937A93DA
:100314008A939A93AA93BA93EA93FA93EFB7EA93D8
:10032400E091B900E0937904F0E0E036A0E0FA0748
:1003340031F4A0E6B3E088DF9924AA245FC0E03852
:10034400A0E0FA0749F4A8E7B3E07EDF9BD014F4F9
:100354009ED054C0A9D055C0E838A0E0FA0709F4EB
:100364004DC0E037A0E0FA0719F49924AA2446C046
:10037400E039A0E0FA0731F485D014F488D03EC007
:1003840093D03FC0E839A0E0FA0721F4A3E9B3E031
:100394005BDF34C0E03AA0E0FA0741F4AFEAB3E02F
:1003A40053DFE1E0F0E0DE2EEF2E28C0E83AA0E0D3
:1003B400FA0711F482D022C0E83BA0E0FA0781F4E6
:1003C400E1E3F0E0BE16CF0614F477D017C0A5E140
:1003D400B4E0AB0DBC1DEC91E093BB00E5E811C0AB
:1003E400E03BA0E0FA0711F468D008C0E03CA0E0CC
:1003F400FA0721F0E83CA0E0FA0729F4E091BC00F8
:10040400E06CE093BC00E991EFBFF991E991B991F7
:10041400A9919991899179916991F990199009908B
:100424001895A0E8B5E2E5DEE2E0EA93E1E0EA93BC
:10043400A0EA1FDF0D2C0E28E9F0A8ECB3E004DFDE
:10044400A3EEB3E001DFA1EEB3E0FEDE33244424E7
:1004540039144A045CF4A5E1B4E0A30DB41DE0E052
:10046400EC93E1E0F0E03E0E4F1EF2CF9924AA2473
:10047400DD24EE24DFCFFFCFA0E0B4E284EF90E0F0
:1004840066D00895E1E3F0E09E16AF060895E92DE5
:10049400FA2D31969E2EAF2E3197ED51FC4FDF0190
:1004A400E091BB00EC930895A92DBA2DAD51BC4F3A
:1004B400E091BB00EC93E5E80895EB2DFC2D31961B
:1004C400BE2ECF2E3197EB5EFB4FE081E093BB0055
:1004D40008953A932A931A930A9308953B812A81A3
:1004E400198108810895F09560957095E195FF4F05
:1004F4006F4F7F4F0895B09580959095A195BF4F0C
:100504008F4F9F4F08953F934F935F93002411247F
:10051400A00130E2AA0FBB1F881F991F001C111CE9
:10052400441F551F0E1A1F0A460B570B28F40E0EB4
:100534001F1E461F571F01C0A1603A9559F7FD01C0
:10054400BC01D001CA015F914F913F91089504D03D
:10055400DADF0EF4C8DF0895E89477FF02C0C3DF42
:10056400689497FF04C0C7DF00F8039400FA089565
:00000001FF
