:060000000C9447000C9473
:1000060000000C9400000C9400000C9400000C946A
:1000160000000C9400000C9400000C9400000C945A
:1000260000000C9400000C9400000C9400000C944A
:1000360000000C9400000C9400000C9400000C943A
:1000460000000C9480000C9400000C9400000C94AA
:1000560000000C9400000C9400000C9400000C941A
:1000660000006368616F206D756E67206E67617949
:1000760020616E682042616E68207261207475008E
:100086001E00000368000000F894EE27EFBBF1E0C5
:10009600F5BFE5BF8DE0A2E0BB27ED938A95E9F7B2
:1000A60080E098E0A0E0B1E0ED930197E9F7E6E89B
:1000B600F0E085919591009761F0A591B591059035
:1000C6001590BF01F00105900D920197E1F7FB0134
:1000D600F0CFE0E0EEBBEFEFEDBFE8E0EEBFC0E053
:1000E600D3E00C94E8001A931A2FE091C000E07256
:1000F600E1F31093C600199108950A921A92FA92A2
:100106006A937A938A939A93AA93BA93EA93FA9301
:10011600EFB7EA931A931091C600A12FE4DF199165
:10012600E991EFBFF991E991B991A99199918991D5
:1001360079916991F9901990099018951A930A93F3
:100146008D01D801EC91E03059F0AC91CCDFD801AB
:10015600AC91AA3011F4ADE0C6DF0F5F1F4FF1CFAF
:10016600099119910895BA93AA9328974BD000E064
:1001760010E04E855F85F801DE011696EA0FFB1F3B
:10018600BF01DA01EAE0F0E067D0E05DDB01EC9365
:10019600DA01EAE0F0E05BD0AF010F5F1F4F042EFB
:1001A600052A49F798010024021603065CF4F901B2
:1001B6003197DE011696AE0FBF1FAC9194DF21502A
:1001C6003040F1CF26D060960895E7E6F0E03E2E67
:1001D6004F2EEF2FFF27E7FDFFEFE093C50030928C
:1001E600C400E6E0E093C200E8E9E093C100A1E6BE
:1001F6007ADFA0E0B3E0A2DFABE7B0E0B4DF78944B
:10020600FFCFFFCF5A934A933A932A931A930A93AE
:1002160008955D814C813B812A8119810881089569
:10022600F195E195F04008950024112490E1AA0F7C
:10023600BB1F001C111C0E1A1F0A18F40E0E1F1EDF
:1002460001C0A1609A9599F7FD01D001089512D0D9
:10025600EBDF0EF4E5DF0895E894B7FF04C0B1952F
:10026600A195B0406894F7FDDBDFDEDFFD010EF4FB
:10027600D7DF0895E894F7FF02C0D2DF6894B7FF8E
:1002860006C0B195A195B04000F8039400FA089510
:00000001FF
