S0120000746573745F61746D656C2E73726563E0
S11300000C9434000C9471050C9451000C94510020
S11300100C9451000C9451000C9451000C94510018
S11300200C9451000C94A4050C9453000C945100AE
S11300300C9451000C9451000C9451000C945100F8
S11300400C9451000C9451000C9451000C945100E8
S11300500C9451000C9451000C9451000C945100D8
S11300600C9451000C94510011241FBECFEFD8E022
S1130070DEBFCDBF11E0A0E0B1E0EAEDFBE002C0DD
S113008005900D92AC34B107D9F721E0ACE4B1E0AE
S113009001C01D92AC35B207E1F70E9455050C94DE
S11300A0EB050C9400001F920F920FB60F921124CF
S11300B04F935F936F937F938F939F93AF93BF936C
S11300C0EF93FF938091810086FF0FC0809186009B
S11300D090918700A0E0B0E0809354019093550183
S11300E0A0935601B09357010EC080918600909161
S11300F08700A0E0B0E08093500190935101A09359
S11301005201B09353018091540190915501A091F3
S11301105601B0915701892B8A2B8B2BC1F1809109
S1130120500190915101A0915201B0915301892B3A
S11301308A2B8B2B61F18091500190915101A091F8
S11301405201B09153014091540150915501609175
S1130150560170915701841B950BA60BB70B809326
S11301604C0190934D01A0934E01B0934F01109216
S11301705401109255011092560110925701109299
S11301805001109251011092520110925301E1E872
S1130190F0E0908180E48927808380E286BBFF9130
S11301A0EF91BF91AF919F918F917F916F915F91EB
S11301B04F910F900FBE0F901F901895672B09F069
S11301C073C08A30910511F4289808958B309105F5
S11301D011F4299808958C30910511F42A98089502
S11301E08D30910511F42B9808958E30910511F4FA
S11301F02C9808958F30910511F42D98089580312D
S1130200910511F42E9808958131910511F42F98D8
S113021008958431910511F440980895853191052C
S113022011F4419808958631910511F44298089586
S11302308731910511F4439808958831910511F49B
S1130240449808958931910511F4459808958A31A7
S1130250910511F4469808958E31910511F458983A
S113026008958F31910511F45998089580329105BC
S113027011F45A9808958132910511F45B98089508
S11302808232910511F45C9808958332910511F43A
S11302905D9808958432910511F45E9808958597C8
S11302A009F073C05F9808958A30910511F4289A73
S11302B008958B30910511F4299A08958C30910595
S11302C011F42A9A08958D30910511F42B9A08950A
S11302D08E30910511F42C9A08958F30910511F404
S11302E02D9A08958031910511F42E9A0895813143
S11302F0910511F42F9A08958431910511F4409ACF
S113030008958531910511F4419A08958631910536
S113031011F4429A08958731910511F4439A08958E
S11303208831910511F4449A08958931910511F4A5
S1130330459A08958A31910511F4469A08958E31AB
S1130340910511F4589A08958F31910511F4599A31
S113035008958032910511F45A9A089581329105D5
S113036011F45B9A08958232910511F45C9A089510
S11303708332910511F45D9A08958432910511F444
S11303805E9A0895859709F45F9A0895CF93C82FCC
S113039080FF07C061E070E089E190E00E94DE0028
S11303A006C060E070E089E190E00E94DE00C1FFD9
S11303B007C061E070E088E190E00E94DE0006C0C2
S11303C060E070E088E190E00E94DE00C2FF07C0B8
S11303D061E070E08FE090E00E94DE0006C060E023
S11303E070E08FE090E00E94DE00C3FF07C061E090
S11303F070E086E190E00E94DE0006C060E070E0FC
S113040086E190E00E94DE00C4FF07C061E070E076
S113041082E290E00E94DE0006C060E070E082E2CA
S113042090E00E94DE00C5FF07C061E070E085E156
S113043090E00E94DE0006C060E070E085E190E09C
S11304400E94DE00C6FF07C061E070E084E190E036
S11304500E94DE0006C060E070E084E190E00E944B
S1130460DE00CC233CF461E070E085E290E00E9481
S1130470DE0006C060E070E085E290E00E94DE00ED
S1130480CF910895CF93C82F60E070E08AE090E0A8
S11304900E94DE008C2F0E94C60161E070E087E1BB
S11304A090E00E94DE008FE99FE00197F1F700C021
S11304B0000060E070E087E190E00E94DE008FE9D8
S11304C09FE00197F1F700C00000CF91089560E02C
S11304D070E08AE090E00E94DE0060E070E087E176
S11304E090E00E94DE002FEF89EF90E021508040E1
S11304F09040E1F700C0000080E30E9442028FE1D7
S11305009EE40197F1F700C0000080E30E944202DC
S11305108FE99FE00197F1F700C0000080E30E949B
S113052042028FE39CE90197F1F700C0000088E3E1
S11305300E9442028CE00E94420281E00E94420238
S113054086E00E9442020895CF93C82F61E070E0D4
S11305508AE090E00E94DE008C2F0E94C60161E0D8
S113056070E087E190E00E94DE008FE99FE0019750
S1130570F1F700C0000060E070E087E190E00E94C5
S1130580DE008FE99FE00197F1F700C00000CF91F2
S11305900895CF93DF93EC018881882331F021966D
S11305A00E94A40289918111FBCFDF91CF9108951C
S11305B01092C50087E68093C40088E08093C10050
S11305C086E08093C20008958FEF84B915B887B987
S11305D08AB952981BB8E89AE0E7F0E0808181601C
S11305E08083E9E6F0E08081816080830895219A28
S11305F0E0E8F0E0808182688083E1E8F0E08081D7
S11306008A61808380E49CE99093870080938600CC
S1130610089587BD16BC84B5826084BD85B58160AC
S113062085BDA99BFECF15BC82E085BB08952B9A9E
S113063084EA90E00E9409032B980895CF93DF93F6
S1130640FC012081222369F0DC011196E0ECF0E04A
S1130650C6ECD0E0908195FFFDCF28832D91211128
S1130660F9CFDF91CF91089580915801909159016C
S1130670892B79F08091580190915901039748F49E
S113068084E291E00E94C90280E091E00E94C902E4
S113069008958091580190915901039778F08091C1
S11306A0580190915901059748F483E291E00E9422
S11306B0C90280E091E00E94C90208958091580126
S11306C090915901059778F08091580190915901C2
S11306D0079748F482E291E00E94C90280E091E029
S11306E00E94C90208958091580190915901079779
S11306F078F08091580190915901099748F481E26A
S113070091E00E94C90280E091E00E94C90208952C
S11307108091580190915901099778F0809158017E
S1130720909159010B9748F480E291E00E94C9022C
S113073080E091E00E94C90208958091580190914F
S113074059010B9778F080915801909159010D97B8
S113075048F48FE191E00E94C90280E091E00E9498
S1130760C902089580915801909159010D9778F02C
S113077080915801909159010F9748F48EE191E0CE
S11307800E94C90280E091E00E94C902089580910C
S11307905801909159010F9778F0809158019091E8
S11307A05901419748F48DE191E00E94C90280E02B
S11307B091E00E94C90208958091580190915901D5
S11307C0419778F08091580190915901439748F4EA
S11307D08CE191E00E94C90280E091E00E94C9028C
S11307E008958091580190915901439778F0809130
S11307F0580190915901459748F48BE191E00E948A
S1130800C90280E091E00E94C902089580915801D4
S113081090915901459778F0809158019091590130
S1130820479748F48AE191E00E94C90280E091E090
S11308300E94C902089580915801909159014797E7
S113084078F08091580190915901499748F489E1D1
S113085091E00E94C90280E091E00E94C9020895DB
S11308608091580190915901499778F080915801ED
S1130870909159014B9748F488E191E00E94C90294
S113088080E091E00E94C9020895809158019091FE
S113089059014D9778F080915801909159014F97E3
S11308A048F487E191E00E94C90280E091E00E944F
S11308B0C90208958091580190915901819778F067
S11308C08091580190915901839748F486E191E011
S11308D00E94C90280E091E00E94C902089580E06C
S11308E091E00E94C9020895AF92BF92CF92DF9225
S11308F0EF92FF920F931F93CF93DF93CDB7DEB7A1
S11309002A970FB6F894DEBF0FBECDBF0F2EF2EEBE
S1130910EF2EF4E0FF2EF02D02E310E00F2EF8E8A6
S1130920AF2EB12CF02DF501F182E082FFEF26E726
S113093081E0F15020408040E1F700C000000E94B7
S11309401703C0905801D090590186E291E00E94AB
S11309501E034AE0BE016F5F7F4FC6010E94B605C9
S1130960CE0101960E941E0381E391E00E941E03C2
S113097087E391E00E941E034AE0BE016A5F7F4F55
S1130980C8010E94B605CE0106960E941E038FE39D
S113099091E00E941E03EFE9FFE03197F1F700C0F8
S11309A0000080EC0E9442020E9434038FE99FE021
S11309B00197F1F700C000000F5F1F4F99E1E90EA6
S11309C0F11C063A110509F0AECF0F2EFDE1EF2E12
S11309D0F0E1FF2EF02D05EA10E00F2EF8E8AF2E1F
S11309E0B12CF02DF501F182E082FFEF26E781E0E2
S11309F0F15020408040E1F700C000000E9417033E
S1130A00C0905801D090590186E291E00E941E03E3
S1130A104AE0BE016F5F7F4FC6010E94B605CE015A
S1130A2001960E941E0381E391E00E941E0387E366
S1130A3091E00E941E034AE0BE016A5F7F4FC80135
S1130A400E94B605CE0106960E941E038FE391E034
S1130A500E941E03EFE9FFE03197F1F700C00000A8
S1130A6080EC0E9442020E9434038FE99FE00197C8
S1130A70F1F700C000000150110999E1E91AF108E9
S1130A800133110509F0AECF2A960FB6F894DEBFF4
S1130A900FBECDBFDF91CF911F910F91FF90EF90CB
S1130AA0DF90CF90BF90AF9008950E94D8020E942B
S1130AB0E4020E94F7020E9467022FEF80E792E0AF
S1130AC0215080409040E1F700C00000789480E815
S1130AD00E94420282E491E00E94C9020E947404CE
S1130AE0F6CF1F920F920FB60F9211248F939F93FC
S1130AF0EF93FF9380915A0190915B01892B61F4EC
S1130B00E1EBF0E080818760808381E090E0909366
S1130B105B0180935A010FC01092B100E2EBF0E048
S1130B20808190E090935901809358011082109233
S1130B305B0110925A01FF91EF919F918F910F9059
S1130B400FBE0F901F9018951F920F920FB60F9221
S1130B5011241092B1001092B20010925B01109215
S1130B605A010F900FBE0F901F901895BB274A3063
S1130B7031F4992322F4BDE2909581959F4F0C9412
S1130B80C205BB27FB015527AA27880F991FAA1F57
S1130B90A41710F0A41B83955051B9F7A05DAA3394
S1130BA008F0A95DA193009779F7B111B19311925F
S1130BB0CB010C94DB05DC01FC01672F71917723D9
S1130BC0E1F7329704C07C916D9370836291AE1704
S10D0BD0BF07C8F30895F894FFCF9F
S1130BDA2020202020202020202020202020202007
S1130BEA2020202020002B2B2B2B2B2B2B2B2B2BA9
S1130BFA2B2B2B2B2B0044697374616E63653A208B
S1130C0A0020636D2C2000416E676C653A20002E2B
S10F0C1A0A0044697374616E63653A005B
S9030000FC
