:040000000C94340028
:100004000C9400000C9400000C9400000C9400006C
:100014000C9400000C9400000C9400000C9400005C
:100024000C9400000C9400000C9400000C9400004C
:100034000C9400000C9400000C9400000C9400003C
:100044000C9400000C9400000C9400000C9400002C
:100054000C9400000C9400000C9400000C9400001C
:100064000C940000F894EE27EFBBF1E0F5BFE5BF78
:100074008DE0A2E0BB27ED938A95E9F780E098E054
:10008400A0E0B1E0ED930197E9F7E0E0EEBBEFEF1C
:10009400EDBFE8E0EEBFC0E0D3E00C945100E0E82F
:1000A400E0936100E0E0E0936100E0E4EAB9EFEBA3
:1000B400EBB9E1E8E4BDE5E0E5BDE0E0E6BDE9E19A
:1000C400E7BDA8EEB3E00AD0E7B5E75EE7BDE7B564
:1000D400EA3F11F4E9E1E7BDF4CFFFCF109639F020
:1000E400A89580ED97E00197F1F71197C9F7089566
:00000001FF
