:0A0000000C943A000C9400000C94DC
:10000A0000000C9400000C9400000C9400000C9466
:10001A0000000C9400000C9400000C9400000C9456
:10002A0000000C9400000C9400000C9400000C9446
:10003A0000000C9400000C9400000C9400000C9436
:10004A0000000C9400000C9400000C9400000C9426
:10005A0000000C9400000C9400000C9400000300B3
:10006A0001000400030068000000F894EE27EFBBCB
:10007A00F1E0F5BFE5BF8DE0A2E0BB27ED938A95DD
:10008A00E9F780E098E0A0E0B1E0ED930197E9F7A5
:10009A00ECE6F0E085919591009761F0A591B59114
:1000AA0005901590BF01F00105900D920197E1F7B7
:1000BA00FB01F0CFE0E0EEBBEFEFEDBFE8E0EEBF13
:1000CA00C0E0D3E00C946900EFEFEAB9E7E0EBB9DE
:1000DA00E1E0F0E0E515F60589F4EBB1EE0FEBB9D6
:1000EA00E1E0F0E03E0E4F1EE7E0F0E0E315F40534
:1000FA0021F4EFEFFFEF5E2E6F2E13C0EBB1F0E0AD
:10010A00F595E795EBB9E32DF42D31973E2E4F2E59
:10011A00E3E0F0E0E315F40521F4E1E0F0E05E2E1F
:10012A006F2EA8EEB3E002D0D3CFFFCF109639F0EE
:10013A00A89580ED97E00197F1F71197C9F708950F
:00000001FF
