:020000000C945E
:1000020034000C9400000C9400000C9400000C943A
:1000120000000C9400000C9400000C9400000C945E
:1000220000000C9400000C9400000C9400000C944E
:1000320000000C946F000C9400000C9400000C94CF
:1000420000000C9400000C9400000C9400000C942E
:1000520000000C9400000C9400000C9400000C941E
:1000620000000C940000F894EE27EFBBF1E0F5BF1E
:10007200E5BF8DE0A2E0BB27ED938A95E9F780E02A
:1000820098E0A0E0B1E0ED930197E9F7E0E0EEBB84
:10009200EFEFEDBFE8E0EEBFC0E0D3E00C947600F6
:1000A2001A930A938D0188279927E0E0F4E264EF1E
:1000B20070E032D076956795F795E795DF01CB0131
:1000C200E0E0F4E060E070E047D0A0E0B0E0AE1B1A
:1000D200BF0B3A2E4B2E0991199108952D9B02C008
:1000E2002D9801C02D9A13D01895A2E0B0E0D8DF68
:1000F200259A2D98E0E0E0938000E5E0E09381000E
:1001020006D0E1E0E0936F007894FFCFFFCF4092FA
:1001120085003092840008957A9F702D6B9F700D38
:10012200F89F700DE99F700D6A9F602D710DFB9F06
:10013200600D711DE89F600D711D8827FA9FF02DDB
:10014200610D781FEB9FF00D611D781FEA9FE02D76
:10015200F10D681F781F08953F934F935F9300241A
:100162001124A00130E2AA0FBB1F881F991F001C97
:10017200111C441F551F0E1A1F0A460B570B28F459
:100182000E0E1F1E461F571F01C0A1603A9559F758
:10019200FD01BC01D001CA015F914F913F910895C9
:00000001FF
