:040000000C94390023
:100004000C9400000C9400000C9400000C9400006C
:100014000C9400000C9400000C9400000C9400005C
:100024000C9400000C9400000C9400000C9400004C
:100034000C9468000C9400000C9400000C940000D4
:100044000C9400000C9400000C9400000C9400002C
:100054000C9400000C9400000C9400000C9400001C
:100064000C94000000000200030068000000F894F3
:10007400EE27EFBBF1E0F5BFE5BF8DE0A2E0BB27C3
:10008400ED938A95E9F780E098E0A0E0B1E0ED9384
:100094000197E9F7EAE6F0E085919591009761F020
:1000A400A591B59105901590BF01F00105900D92B1
:1000B4000197E1F7FB01F0CFE0E0EEBBEFEFEDBF1E
:1000C400E8E0EEBFC0E0D3E00C948400EA93FA9336
:1000D400EFB7EA93E1E0F0E03E0E4F1EE2E0F0E01D
:1000E400E315F40509F42D98E6E0F0E0E315F405D2
:1000F40019F42D9A3324442414D0E991EFBFF991D3
:10010400E9911895259A2D98E0E0E0938000E5E0C8
:10011400E093810006D0E1E0E0936F007894FFCF94
:10012400FFCFE1EEE0938500ECE7E09384000895CF
:00000001FF
